{
  "_format": "hh-sol-artifact-1",
  "contractName": "Voting",
  "sourceName": "contracts/Voting.sol",
  "abi": [
    {
      "inputs": [
        {
          "internalType": "uint256",
          "name": "_maxCandidates",
          "type": "uint256"
        },
        {
          "internalType": "uint256",
          "name": "_comission",
          "type": "uint256"
        }
      ],
      "stateMutability": "nonpayable",
      "type": "constructor"
    },
    {
      "anonymous": false,
      "inputs": [
        {
          "indexed": true,
          "internalType": "uint256",
          "name": "id",
          "type": "uint256"
        },
        {
          "indexed": true,
          "internalType": "address",
          "name": "candidate",
          "type": "address"
        },
        {
          "indexed": false,
          "internalType": "bool",
          "name": "existOnThisVoting",
          "type": "bool"
        }
      ],
      "name": "candidateInfo",
      "type": "event"
    },
    {
      "anonymous": false,
      "inputs": [
        {
          "indexed": true,
          "internalType": "uint256",
          "name": "id",
          "type": "uint256"
        }
      ],
      "name": "votingDraftCreated",
      "type": "event"
    },
    {
      "anonymous": false,
      "inputs": [
        {
          "indexed": true,
          "internalType": "uint256",
          "name": "id",
          "type": "uint256"
        },
        {
          "indexed": false,
          "internalType": "uint256",
          "name": "startDate",
          "type": "uint256"
        }
      ],
      "name": "votingStarted",
      "type": "event"
    },
    {
      "inputs": [],
      "name": "Comission",
      "outputs": [
        {
          "internalType": "uint256",
          "name": "",
          "type": "uint256"
        }
      ],
      "stateMutability": "view",
      "type": "function"
    },
    {
      "inputs": [
        {
          "internalType": "uint256",
          "name": "_id",
          "type": "uint256"
        },
        {
          "internalType": "address",
          "name": "_candidate",
          "type": "address"
        }
      ],
      "name": "addCandidate",
      "outputs": [],
      "stateMutability": "nonpayable",
      "type": "function"
    },
    {
      "inputs": [
        {
          "internalType": "address[]",
          "name": "_candidates",
          "type": "address[]"
        },
        {
          "internalType": "uint256",
          "name": "_period",
          "type": "uint256"
        }
      ],
      "name": "addVoting",
      "outputs": [],
      "stateMutability": "nonpayable",
      "type": "function"
    },
    {
      "inputs": [
        {
          "internalType": "uint256",
          "name": "_id",
          "type": "uint256"
        },
        {
          "internalType": "address",
          "name": "_candidate",
          "type": "address"
        }
      ],
      "name": "checkCandidate",
      "outputs": [
        {
          "internalType": "bool",
          "name": "",
          "type": "bool"
        }
      ],
      "stateMutability": "view",
      "type": "function"
    },
    {
      "inputs": [],
      "name": "counter",
      "outputs": [
        {
          "internalType": "uint256",
          "name": "",
          "type": "uint256"
        }
      ],
      "stateMutability": "view",
      "type": "function"
    },
    {
      "inputs": [
        {
          "internalType": "uint256",
          "name": "_id",
          "type": "uint256"
        },
        {
          "internalType": "address",
          "name": "_candidate",
          "type": "address"
        }
      ],
      "name": "deleteCandidate",
      "outputs": [],
      "stateMutability": "nonpayable",
      "type": "function"
    },
    {
      "inputs": [
        {
          "internalType": "uint256",
          "name": "_id",
          "type": "uint256"
        },
        {
          "internalType": "uint256",
          "name": "_newPeriod",
          "type": "uint256"
        }
      ],
      "name": "editVotingPeriod",
      "outputs": [],
      "stateMutability": "nonpayable",
      "type": "function"
    },
    {
      "inputs": [
        {
          "internalType": "uint256",
          "name": "_id",
          "type": "uint256"
        }
      ],
      "name": "getVotingInfo",
      "outputs": [
        {
          "internalType": "bool",
          "name": "",
          "type": "bool"
        },
        {
          "internalType": "uint256",
          "name": "",
          "type": "uint256"
        },
        {
          "internalType": "uint256",
          "name": "",
          "type": "uint256"
        },
        {
          "internalType": "uint256",
          "name": "",
          "type": "uint256"
        },
        {
          "internalType": "uint256",
          "name": "",
          "type": "uint256"
        },
        {
          "internalType": "address",
          "name": "",
          "type": "address"
        }
      ],
      "stateMutability": "view",
      "type": "function"
    },
    {
      "inputs": [],
      "name": "maxCandidates",
      "outputs": [
        {
          "internalType": "uint256",
          "name": "",
          "type": "uint256"
        }
      ],
      "stateMutability": "view",
      "type": "function"
    },
    {
      "inputs": [],
      "name": "minCandidates",
      "outputs": [
        {
          "internalType": "uint256",
          "name": "",
          "type": "uint256"
        }
      ],
      "stateMutability": "view",
      "type": "function"
    },
    {
      "inputs": [],
      "name": "owner",
      "outputs": [
        {
          "internalType": "address",
          "name": "",
          "type": "address"
        }
      ],
      "stateMutability": "view",
      "type": "function"
    },
    {
      "inputs": [
        {
          "internalType": "uint256",
          "name": "_maxCandidates",
          "type": "uint256"
        }
      ],
      "name": "setMaxCandidates",
      "outputs": [],
      "stateMutability": "nonpayable",
      "type": "function"
    },
    {
      "inputs": [
        {
          "internalType": "uint256",
          "name": "_id",
          "type": "uint256"
        }
      ],
      "name": "startVoting",
      "outputs": [],
      "stateMutability": "nonpayable",
      "type": "function"
    },
    {
      "inputs": [
        {
          "internalType": "uint256",
          "name": "_id",
          "type": "uint256"
        },
        {
          "internalType": "address",
          "name": "_candidate",
          "type": "address"
        }
      ],
      "name": "takePartInVoting",
      "outputs": [],
      "stateMutability": "payable",
      "type": "function"
    },
    {
      "inputs": [
        {
          "internalType": "uint256",
          "name": "_id",
          "type": "uint256"
        }
      ],
      "name": "withdrawPrize",
      "outputs": [],
      "stateMutability": "nonpayable",
      "type": "function"
    }
  ],
  "bytecode": "0x60a060405234801561001057600080fd5b506040516111d23803806111d283398101604081905261002f9161004c565b600080546001600160a01b03191633179055608052600255610070565b6000806040838503121561005f57600080fd5b505080516020909101519092909150565b6080516111416100916000396000818160ff0152610d9201526111416000f3fe6080604052600436106100e85760003560e01c80633d2f5bda1161008a5780638ab9b9d0116100595780638ab9b9d0146102c15780638da5cb5b146102f1578063c20eec7b14610329578063ddc0dc4e1461034957600080fd5b80633d2f5bda1461025557806361bc221a1461027557806365af2ac81461028b57806378a0af4c146102a157600080fd5b80631c9b69bd116100c65780631c9b69bd14610176578063248a06341461018b578063262989e81461022257806333c57ccd1461023557600080fd5b80630c2b13e6146100ed578063178b519b146101345780631ae57ce314610156575b600080fd5b3480156100f957600080fd5b506101217f000000000000000000000000000000000000000000000000000000000000000081565b6040519081526020015b60405180910390f35b34801561014057600080fd5b5061015461014f366004610f28565b610369565b005b34801561016257600080fd5b50610154610171366004610f66565b61043c565b34801561018257600080fd5b50610121600281565b34801561019757600080fd5b506101ea6101a6366004610f92565b60009081526003602081905260409091208054600182015460028301549383015460049093015460ff8316959194939290916101009091046001600160a01b031690565b604080519615158752602087019590955293850192909252606084015260808301526001600160a01b031660a082015260c00161012b565b610154610230366004610f66565b610560565b34801561024157600080fd5b50610154610250366004610f66565b6107a7565b34801561026157600080fd5b50610154610270366004610f92565b61099b565b34801561028157600080fd5b5061012160015481565b34801561029757600080fd5b5061012160025481565b3480156102ad57600080fd5b506101546102bc366004610fab565b610a55565b3480156102cd57600080fd5b506102e16102dc366004610f66565b610bd9565b604051901515815260200161012b565b3480156102fd57600080fd5b50600054610311906001600160a01b031681565b6040516001600160a01b03909116815260200161012b565b34801561033557600080fd5b50610154610344366004610f92565b610c0c565b34801561035557600080fd5b50610154610364366004610f92565b610e52565b6000546001600160a01b031633146103c85760405162461bcd60e51b815260206004820181905260248201527f536f7272792c2062757420796f7520617265206e6f7420616e206f776e65722160448201526064015b60405180910390fd5b60008281526003602052604090205460ff16156104275760405162461bcd60e51b815260206004820152601960248201527f566f74696e672068617320616c726561647920626567756e210000000000000060448201526064016103bf565b60009182526003602052604090912060040155565b6000546001600160a01b031633146104965760405162461bcd60e51b815260206004820181905260248201527f536f7272792c2062757420796f7520617265206e6f7420616e206f776e65722160448201526064016103bf565b60008281526003602052604090205460ff16156104f55760405162461bcd60e51b815260206004820152601960248201527f566f74696e672068617320616c726561647920626567756e210000000000000060448201526064016103bf565b60008281526003602090815260408083206001600160a01b03851680855260059091018352818420600101805460ff1916905590519283529184917f0d7a9ec927774dd3a7db78abe1a8634c4e4509290232ebe5bcd8e656d694643391015b60405180910390a35050565b333b156105af5760405162461bcd60e51b815260206004820152601660248201527f4120636f6e74726163742063616e277420766f7465210000000000000000000060448201526064016103bf565b6000828152600360205260409020805460ff191660019081178255600482015491015442916105dd9161103c565b1161062a5760405162461bcd60e51b815260206004820152601160248201527f566f74696e672068617320656e6465642100000000000000000000000000000060448201526064016103bf565b6106348282610bd9565b6106a65760405162461bcd60e51b815260206004820152602e60248201527f546869732063616e6469646174657320646f6573206e6f74206578697374206960448201527f6e207468697320766f74696e672100000000000000000000000000000000000060648201526084016103bf565b60008281526003602090815260408083206001600160a01b0385168452600501909152812080543492906106db90849061103c565b90915550506000828152600360208190526040822001805434929061070190849061103c565b9091555050600082815260036020908152604080832060028101546001600160a01b038616855260059091019092529091205411156107a35760008281526003602081815260408084206001600160a01b038616808652600582018452918520549487905292909152600282019290925580547fffffffffffffffffffffff0000000000000000000000000000000000000000ff166101009092029190911790555b5050565b6000546001600160a01b031633146108015760405162461bcd60e51b815260206004820181905260248201527f536f7272792c2062757420796f7520617265206e6f7420616e206f776e65722160448201526064016103bf565b6001600160a01b03811661087d5760405162461bcd60e51b815260206004820152602160248201527f546869732063616e6469646174652077697468207a65726f206164647265737360448201527f210000000000000000000000000000000000000000000000000000000000000060648201526084016103bf565b6001600160a01b0381163b156108d55760405162461bcd60e51b815260206004820181905260248201527f4120636f6e74726163742063616e277420626520612063616e6469646174652160448201526064016103bf565b60008281526003602052604090205460ff16156109345760405162461bcd60e51b815260206004820152601960248201527f566f74696e672068617320616c726561647920626567756e210000000000000060448201526064016103bf565b60008281526003602090815260408083206001600160a01b03851680855260059091018352928190206001908101805460ff191682179055905190815284917f0d7a9ec927774dd3a7db78abe1a8634c4e4509290232ebe5bcd8e656d69464339101610554565b6000546001600160a01b031633146109f55760405162461bcd60e51b815260206004820181905260248201527f536f7272792c2062757420796f7520617265206e6f7420616e206f776e65722160448201526064016103bf565b60008181526003602052604090819020805460ff191660019081178255429101819055905182917f0377dfbd6e4aa0688c840ef165b5c872f7eabf72f5ccfd60c13c18e67d9ea58191610a4a91815260200190565b60405180910390a250565b6000546001600160a01b03163314610aaf5760405162461bcd60e51b815260206004820181905260248201527f536f7272792c2062757420796f7520617265206e6f7420616e206f776e65722160448201526064016103bf565b60028210801590610ac1575060025482105b610b335760405162461bcd60e51b815260206004820152603b60248201527f546865206e756d626572206f662063616e64696461746573206d75737420636f60448201527f6d706c7920776974682074686520766f74696e672072756c657321000000000060648201526084016103bf565b60015460009081526003602052604081206004018290555b82811015610b9257610b80600154858584818110610b6b57610b6b61104f565b90506020020160208101906102509190611065565b80610b8a81611087565b915050610b4b565b506001546040517ff9eb788c9816b666dd390a2b8164f8548e5ea6daab2fc6cf7cce32acc8e6305e90600090a260018054906000610bcf83611087565b9190505550505050565b60008281526003602090815260408083206001600160a01b038516845260050190915290206001015460ff165b92915050565b6000818152600360205260409020805460ff19166001908117825560048201549101544291610c3a9161103c565b10610c875760405162461bcd60e51b815260206004820152601860248201527f566f74696e67206973206e6f7420656e6465642079657421000000000000000060448201526064016103bf565b60008181526003602052604090205461010090046001600160a01b03163314610cf25760405162461bcd60e51b815260206004820152601560248201527f596f7520617265206e6f7420612077696e6e657221000000000000000000000060448201526064016103bf565b60008181526003602081905260409091200154610d775760405162461bcd60e51b815260206004820152602560248201527f596f75206861766520616c726561647920726563656976656420796f7572207060448201527f72697a652100000000000000000000000000000000000000000000000000000060648201526084016103bf565b600081815260036020819052604082200154906064610db6837f00000000000000000000000000000000000000000000000000000000000000006110bf565b610dc091906110d6565b90506000610dce82846110f8565b6000858152600360208190526040808320909101829055815490519293506001600160a01b03169184156108fc0291859190818181858888f19350505050158015610e1d573d6000803e3d6000fd5b50604051339082156108fc029083906000818181858888f19350505050158015610e4b573d6000803e3d6000fd5b5050505050565b6000546001600160a01b03163314610eac5760405162461bcd60e51b815260206004820181905260248201527f536f7272792c2062757420796f7520617265206e6f7420616e206f776e65722160448201526064016103bf565b8060021115610f235760405162461bcd60e51b815260206004820152602160248201527f4d696e696d756d206e756d626572206f662063616e646964617465732069732060448201527f320000000000000000000000000000000000000000000000000000000000000060648201526084016103bf565b600255565b60008060408385031215610f3b57600080fd5b50508035926020909101359150565b80356001600160a01b0381168114610f6157600080fd5b919050565b60008060408385031215610f7957600080fd5b82359150610f8960208401610f4a565b90509250929050565b600060208284031215610fa457600080fd5b5035919050565b600080600060408486031215610fc057600080fd5b833567ffffffffffffffff80821115610fd857600080fd5b818601915086601f830112610fec57600080fd5b813581811115610ffb57600080fd5b8760208260051b850101111561101057600080fd5b6020928301989097509590910135949350505050565b634e487b7160e01b600052601160045260246000fd5b80820180821115610c0657610c06611026565b634e487b7160e01b600052603260045260246000fd5b60006020828403121561107757600080fd5b61108082610f4a565b9392505050565b60007fffffffffffffffffffffffffffffffffffffffffffffffffffffffffffffffff82036110b8576110b8611026565b5060010190565b8082028115828204841417610c0657610c06611026565b6000826110f357634e487b7160e01b600052601260045260246000fd5b500490565b81810381811115610c0657610c0661102656fea2646970667358221220104791cbdda13b4d9769538bb14f9e734b2ccad9492ffad97c034f3a1f63144a64736f6c63430008110033",
  "linkReferences": {},
  "deployedLinkReferences": {}
}